:100000000C94B5010C94E6010C94E6010C94E60105
:100010000C94E6010C94E6010C94E6010C94E601C4
:100020000C94E6010C94E6010C94E6010C94E601B4
:100030000C94E6010C94E6010C94E6010C94E601A4
:100040000C94E6010C94E6010C94E6010C94E60194
:100050000C94E6010C94E6010C94E6010C94D01487
:100060000C94E6010C9444150C941A150C94E601BA
:100070000C94E6010C94E6010C94E6010C94E60164
:100080000C94E6010C94E6010C94E6010C94E60154
:100090000C94E6010C94E6010C94E6010C94E60144
:1000A0000C94E6010C94E6010C94E6010C94E60134
:1000B0000C94E6010C94E6010C94E6010C94E60124
:1000C0000C94E6010C94E6010C94E6010C94E60114
:1000D0000C94E6010C94E6010C94E6010C94E60104
:1000E0000C94E6010C949B050C94CC070C94E4064C
:1000F0000C948D080C94F2030C9468040C94A006E4
:100100000C944D020C9488080C947B040C94FE1300
:100110000C945C020C9436020C9470020C94EA026B
:100120000C94AE060C94F1030C94B9060C940807D9
:100130000C9436060C9439060C948B140C948F0492
:100140000C9407050C94EA050C94BD020C94BF04B2
:100150000C9453030C94C2040C94C6060C94FC1328
:100160000C94AB130C942B080C9405070C94770497
:100170000C94A0030C944E060C9471050C94590237
:100180000C94E7060C94FB060C9470060C94510238
:100190000C94F1040C940D030C943B020C94040594
:1001A0000C9490060C9462020C94EA060C947A0269
:1001B0000C94A3060C9482020C947A040C94BE0551
:1001C0000C94DA060C9400140C94C8070C941007D5
:1001D0000C9485060C945D060C9473040C946B05CA
:1001E0000C94F9020C9442140C94D1060C948C02D9
:1001F0000C943F050C94A9040C941C050C94D70492
:100200000C94B7020C94BA020C94F2060C945502AA
:100210000C9466020C9488020C94BC040C94740434
:100220000C947E020C946C020C9423060C947402C1
:100230000C9414060C949A080C941B030C947A15D5
:100240000C949D060C946E05330909003C090000CE
:100250003F09000042090400470904004C0900005E
:100260004F09040054090400590903005E09040001
:10027000630900006609000048020C00000022002B
:10028000250028002B002E00310034000201000060
:10029000050108010B010505050507050808080803
:1002A000020202020A0A080804040404010101010E
:1002B0000101010103030303030303030407070709
:1002C0000C0C0C0C0C0C0C0C0202020206060606AE
:1002D000060606060B0B0B0B0B0B0B0B010210207B
:1002E000200808102040102040800201020108046C
:1002F0000201010204081020408080402010080400
:100300000201800402018040201008040201080458
:10031000020101020408102040800102040810209C
:10032000408000000A0B02090C0D0E0807030401AF
:1003300000000000000000000000000000000000BD
:10034000000000000000000000000000000012118A
:10035000100000000000000000000000000000008D
:1003600000000000000000007A1511241FBECFEF2E
:10037000DFEFDEBFCDBF00E00CBF15E0A0E0B2E0D4
:10038000ECE0FDE300E00BBF02C007900D92A43744
:10039000B107D9F729E0A4E7B5E001C01D92AC3858
:1003A000B207E1F711E0C5EBD1E000E006C021970C
:1003B0000109802FFE010E948E1CC43BD10780E002
:1003C0000807A9F70E9458160C94841E0C9400008C
:1003D0004091900850919108E0E9F7E081E090E0C9
:1003E0004230510530F4109291081092900808950F
:1003F000C901218121939C012F5F3F4F4217530771
:10040000B9F790939108809390080895282F30E0D1
:10041000F901EE5DFC4F9491F901E452FD4F4491D6
:100420002A563D4FF9012491222309F435C099231E
:1004300011F191509231F8F4E92FF0E08827EC5D4A
:10044000FD4F8F4F0C948E1C5502590236024D02FF
:1004500051023B025C02620266026C02700274028C
:100460007A027E023B02820288028C028091800026
:100470008F7780938000E22FF0E0EE0FFF1FE458AB
:10048000FD4FA591B4918FB7F894EC91611148C0DC
:1004900040954E234C938FBF0895809180008F7DAF
:1004A000E8CF80918000877FE4CF84B58F7784BDCB
:1004B000E2CF84B58F7DFBCF8091B0008F778093A2
:1004C000B000D9CF8091B0008F7DF9CF809190009E
:1004D0008F7780939000CFCF809190008F7DF9CF60
:1004E00080919000877FF5CF8091A0008F778093D7
:1004F000A000C1CF8091A0008F7DF9CF8091A00096
:10050000877FF5CF809120018F7780932001B3CF33
:10051000809120018F7DF9CF80912001877FF5CFD9
:100520004E2BB8CF3FB7F89480918C0790918D07F0
:10053000A0918E07B0918F0726B5A89B05C02F3FCD
:1005400019F00196A11DB11D3FBFBA2FA92F982FF9
:100550008827BC01CD01620F711D811D911D42E0F4
:10056000660F771F881F991F4A95D1F7089581E07C
:1005700090E008958F5A9F4F0895AF92BF92CF9207
:10058000DF92EF92FF920F931F93CF93DF936C0153
:100590007B018B01040F151FEB015E01AE18BF0834
:1005A000C017D10759F06991D601ED91FC910190E6
:1005B000F081E02DC6011995892B79F7C501DF91EE
:1005C000CF911F910F91FF90EF90DF90CF90BF9050
:1005D000AF900895FC01538D448D252F30E0842F7A
:1005E00090E0821B930B541710F0CF96089501975B
:1005F0000895FC01918D828D981761F0A28DAE0F48
:10060000BF2FB11D5D968C91928D9F5F9F73928FCE
:1006100090E008958FEF9FEF0895FC01918D828DFA
:10062000981731F0828DE80FF11D858D90E00895C7
:100630008FEF9FEF0895FC01918D228D892F90E01F
:10064000805C9F4F821B91098F739927089582E9DF
:1006500098E00E941B0321E0892B09F420E0822FFF
:100660000895FC01A48DA80FB92FB11DA35ABF4F47
:100670002C91848D90E001968F739927848FA689A1
:10068000B7892C93A089B1898C91837080648C93F5
:10069000938D848D981306C00288F389E02D8081A4
:1006A0008F7D80830895EF92FF920F931F93CF93D6
:1006B000DF93EC0181E0888F9B8D8C8D98131AC09D
:1006C000E889F989808185FF15C09FB7F894EE8984
:1006D000FF896083E889F9898081837080648083E1
:1006E0009FBF81E090E0DF91CF911F910F91FF902C
:1006F000EF900895F62E0B8D10E00F5F1F4F0F73D4
:100700001127E02E8C8D8E110CC00FB607FCFACF8E
:10071000E889F989808185FFF5CFCE010E943103F8
:10072000F1CFEB8DEC0FFD2FF11DE35AFF4FF0825F
:100730009FB7F8940B8FEA89FB8980818062CFCFC5
:10074000CF93DF93EC01888D8823B9F0AA89BB8908
:10075000E889F9898C9185FD03C0808186FD0DC0F3
:100760000FB607FCF7CF8C9185FFF2CF808185FF14
:10077000EDCFCE010E943103E9CFDF91CF910895F3
:1007800080E090E0892B29F00E94270381110E94CC
:10079000000080E090E0892B49F080E090E0892B18
:1007A00029F00E94000081110E94000080E090E08A
:1007B000892B49F080E090E0892B29F00E9400000D
:1007C00081110E94000080E090E0892B49F080E0D8
:1007D00090E0892B29F00E94000081110C94000008
:1007E00008950895CF93DF93EC018FA5882309F432
:1007F00041C028A939A98E812130310509F040C0B6
:100800009AA59923D1F16BA57CA5811110C0072E63
:10081000000C880B990B0E94E01B20E030E048ECB4
:1008200052E40E946C1B6A837B838C839D8388A126
:10083000882369F189A19AA12B89222359F12C8956
:100840003D898217930748F58C8D811102C081E0A4
:100850008B8F8C85882389F18D859BA9882389F1CD
:100860008C8D882361F18D8D911101C08AABDF9150
:10087000CF9108952DA53EA5BECF68A579A5C5CF7A
:100880008111D5CF1A821B821C821D82D0CF8E8D02
:100890009F8DD2CF29893A89D4CF288D222351F038
:1008A000298D3A8D28173907A0F68C8D8111D1CF6B
:1008B0001B8ECFCF2E893F89F5CF8B85CECF8B8DE9
:1008C000D3CF8F85882311F08889CECF8E85CCCF6A
:1008D000FB011082118212821382FA0110821182AE
:1008E000128213820895089590E080E0089590E0C8
:1008F00080E0089508958BE395E00895282F8AE716
:1009000092E0A0E0BB2730E0220F331F820F931F3D
:10091000A11DB11DABBFFC01879196910895CF93A6
:10092000DF9300D01F92CDB7DEB7FB01408151812C
:1009300062817381FC012481211104C040835183B1
:10094000628373830F900F900F900F90DF91CF9180
:100950000895FC018481882351F085819681A781C7
:10096000B085FB0180839183A283B3830895808146
:100970009181A281B381F5CFFC0114820895FC011D
:1009800014820895CF93DF93FC01EB018881998154
:10099000AA81BB8121E0248385839683A783B087C6
:1009A00080839183A283B383DF91CF910895CF9306
:1009B000DF9300D01F92CDB7DEB7FB01408151819C
:1009C00062817381FC012481211104C04083518321
:1009D000628373830F900F900F900F90DF91CF91F0
:1009E0000895FC018481882351F085819681A78137
:1009F000B085FB0180839183A283B38308958081B6
:100A00009181A281B381F5CFFC0114820895CF9327
:100A1000DF93FC01EB0188819981AA81BB8121E0F0
:100A2000248385839683A783B08780839183A28361
:100A3000B383DF91CF910895FC01DB0180858111A3
:100A40001DC07C9111966C91119712965C91129732
:100A500013964C91139714963C91149715962C91DC
:100A6000159716969C91169717968C9170836183B3
:100A70005283438334832583968387830895FC01BF
:100A8000DB0180858823F1F071856285538544857B
:100A900035852685978580897C9311966C9311976F
:100AA00012965C93129713964C93139714963C935B
:100AB000149715962C93159716969C931697179640
:100AC0008C930895708161815281438134812581A5
:100AD00096818781E1CFFC0110860895FC01108684
:100AE0000895FC01DB017C9111966C91119712968F
:100AF0005C91129713964C91139714963C9114970E
:100B000015962C91159716969C91169717968C9181
:100B1000A1E0A0877187628753874487358726873E
:100B20009787808B708361835283438334832583CB
:100B3000968387830895FC01DB01808581111DC0A8
:100B40007C9111966C91119712965C911297139665
:100B50004C91139714963C91149715962C911597D8
:100B600016969C91169717968C9170836183528389
:100B7000438334832583968387830895FC01DB01B7
:100B800080858823F1F0718562855385448535859C
:100B90002685978580897C9311966C931197129680
:100BA0005C93129713964C93139714963C93149757
:100BB00015962C93159716969C93169717968C93CB
:100BC00008957081618152814381348125819681AC
:100BD0008781E1CFFC01DB017C9111966C9111972B
:100BE00012965C91129713964C91139714963C9120
:100BF000149715962C91159716969C911697179603
:100C00008C91A1E0A08771876287538744873587DD
:100C100026879787808B70836183528343833483D5
:100C20002583968387830895FC01248121110AC0BE
:100C3000FB014081518162817381FC0140835183BA
:100C4000628373830895FC018481882351F0858138
:100C50009681A781B085FB0180839183A283B383B2
:100C6000089580819181A281B381F5CFFC01148226
:100C70000895CF93DF93FC01EB0188819981AA81CC
:100C8000BB8121E0248385839683A783B0878083FB
:100C90009183A283B383DF91CF910895FC012481D6
:100CA00021110AC0FB014081518162817381FC01E5
:100CB00040835183628373830895FC018481882378
:100CC00051F085819681A781B085FB018083918356
:100CD000A283B383089580819181A281B381F5CFEE
:100CE000CF93DF93FC01EB0188819981AA81BB81BD
:100CF00021E0248385839683A783B08780839183B3
:100D0000A283B383DF91CF910895FC012281211149
:100D100006C0FB0120813181FC01318320830895CD
:100D2000FC018281882331F083819481FB019183CE
:100D30008083089580819181F9CFFC01128208950A
:100D4000FC0112820895FC01DB018D919C9121E050
:100D5000228394838383918380830895FC0122817D
:100D6000211106C0FB0120813181FC0131832083E8
:100D70000895FC018281882331F083819481FB01F5
:100D800091838083089580819181F9CFFC01DB01FB
:100D90008D919C9121E0228394838383918380832E
:100DA0000895FC012181211104C0FB012081FC0177
:100DB00020830895FC018181882321F08281FB0139
:100DC000808308958081FBCFFC0111820895FC018E
:100DD00011820895FC01DB018C9191E09183828363
:100DE00080830895FC012181211104C0FB01208131
:100DF000FC0120830895FC018181882321F08281F8
:100E0000FB01808308958081FBCFFC01118208954E
:100E1000FC01DB018C9191E09183828380830895B2
:100E2000FC018181882321F08281FB018083089568
:100E30008081FBCFA8E0B2E01896ED91FC91199764
:100E4000309751F011968C911197823049F150F4FE
:100E5000882301F18130F1F01A9682E0A434B807BA
:100E600059F70895833021F18430B1F780858823C4
:100E700099F38185808382858183838582838485BC
:100E8000838385858483868585838785868380891A
:100E90008783E2CF81818823F9F282818083DCCF4E
:100EA00082818823C9F28381948191838083D4CF06
:100EB0008481882389F245815681678170854083CA
:100EC000518362837383C8CF0F931F93882339F0B4
:100ED00060E070E080E090E01F910F9108950AE7D4
:100EE00012E020E033272BBFF8010791169160171D
:100EF0007107B0F488E792E0A0E0BB27ABBFFC012C
:100F000087919691660F771F660F771F680F791F7D
:100F1000FB0125913491FB0132968491B901DBCF1D
:100F200060E070E0D8CF0E946407672B59F08531EC
:100F300048F499E0899FF0011124E65BFB4F80851E
:100F400090E0089590E080E008950F931F93CF9371
:100F50008A010E946407E82FCB010097B1F0E531C8
:100F6000A0F429E0E29FF0011124E65BFB4FC0856D
:100F7000CC2359F00480F581E02DB80119958C2F10
:100F800090E0CF911F910F91089590E080E0F9CF0C
:100F90009E5FFC0110820895EF92FF920F931F93C2
:100FA000CF93DF93CDB7DEB7CC5FD2400FB6F894C6
:100FB000DEBF0FBECDBFFB0130813F3708F03EE7FB
:100FC000FB01BE016F5F7D4FDB0120E0231751F075
:100FD000428151814527542745274D935D932F5FCB
:100FE0003296F4CF30E0DE01119650E040E07D0112
:100FF0004217530748F4FB0101911191BF010D9372
:101000001D934F5F5F4FF4CFD901AA0FBB1FAE0DE9
:10101000BF1D1D921C92DC01BE5F41E04C93C1508C
:10102000DE4F39832883CF5FD140119680E092E074
:10103000F70101900D920197E1F7C450DD4F0FB613
:10104000F894DEBF0FBECDBFDF91CF911F910F91FE
:10105000FF90EF900895EF92FF920F931F93CF931D
:10106000DF93CDB7DEB7CC5FD2400FB6F894DEBFCA
:101070000FBECDBFFB0130813F3708F03EE7FB01DB
:10108000BE016F5F7D4FDB0120E0231751F04281ED
:1010900051814527542745274D935D932F5F329605
:1010A000F4CF30E0DE01119650E040E07D014217C0
:1010B000530748F4FB0101911191BF010D931D935A
:1010C0004F5F5F4FF4CFA901440F551F4E0D5F1DB9
:1010D000FA0111821082C150DE4F39832883CF5F1D
:1010E000D14020E032E0F701DC0101900D92215067
:1010F0003040D9F7C450DD4F0FB6F894DEBF0FBEB5
:10110000CDBFDF91CF911F910F91FF90EF90089588
:101110008F5F9E4FFC0110820895FC0121812111F7
:1011200008C021E0FB013081311101C020E0FC0149
:1011300020830895FC0181E0DB019C91911101C0A5
:1011400080E091E0918382838083089520919007CD
:10115000209530E0F901E65BFC4F90819095265B8D
:101160003D4FD9018C9140917805509179054250BD
:101170005109E0E9F7E031969F01205937402417E3
:10118000350770F420819227292F30E0D901A65B22
:10119000BC4F9C919827265B3D4FD9018C91EBCF9A
:1011A000089523E030E03093790520937805E0E955
:1011B000F7E0909159079083805881836283089566
:1011C0000F931F93582F577001E010E020E030E09C
:1011D00004C0000F111F221F331F5A95D2F723E0BE
:1011E000969587952A95E1F79927E0916307F09105
:1011F0006407662321F0E0916907F0916A07E80F20
:10120000F91F8081442329F0082B00831F910F913F
:10121000089500950823F9CF2F923F924F925F9245
:101220006F927F928F929F92AF92BF92CF92DF92F6
:10123000EF92FF920F931F93CF93DF93CDB7DEB75B
:10124000C655D1090FB6F894DEBF0FBECDBF10E072
:1012500000E0F801EE0FFF1FE751F94F0190F08118
:10126000E02D309749F041E08081811101C040E0DC
:1012700060E0C8010E94E0080F5F1F4F08331105AE
:1012800041F7E0905A07F0905B0729EA36E02D9687
:101290003FAF2EAF2D978701005C1F4FF701D9019B
:1012A0008D919D919D01009729F0DC018D919C917C
:1012B0009183808332960E171F0789F7D12CC12C9A
:1012C000F601EE0FFF1FE75CF94F0190F081E02D72
:1012D000309749F041E08081811101C040E061E038
:1012E000C6010E94E008BFEFCB1ADB0AE8E3CE1686
:1012F000D10431F749EF55E0E0916607F0916707B7
:101300009F01205C3F4FDA018D919D91AD010097C7
:1013100029F0DC018D919C91918380833296E217B4
:10132000F30789F7E1EDF5E02F96FFAFEEAF2F97CA
:10133000F80128E6E20EF11C21ED35E0D9018D918E
:101340009D919D01009729F0DC018D919C919183E5
:1013500080833296EE16FF0689F7E9EAF5E061969A
:10136000FFAFEEAF6197E0915D07F0915E079F01DF
:10137000205B3F4F09EA15E0D8018D919D918D01C9
:10138000009749F0DC014D915D916D917C91408316
:101390005183628373833496E217F30769F7E1E8B8
:1013A000F5E02B96FFAFEEAF2B97E0916007F09141
:1013B00061079F0120563F4F81E895E0DC01CD9009
:1013C000DD90CD01C114D104F1F0D601EC9011965D
:1013D000FC90119712960C91129713961C911397EB
:1013E00014967C91149715966C91159716965C91AE
:1013F000169717964C91E082F182028313837483CF
:1014000065835683478338962E173F07B9F6809138
:101410007F0590918005DC01ED91FC910084F185C0
:10142000E02D199518161906B4F580919008909141
:1014300091088F3F910509F070F580917F0590919B
:101440008005DC01ED91FC910284F385E02D199576
:101450002091900830919108A9014F5F5F4F509300
:101460009108409390082057384FF90180832FB797
:10147000F8948091880790918907A0918A07B0918C
:101480008B072FBF8093740590937505A093760505
:10149000B0937705BCCF40919008509191084115C9
:1014A000510509F466C090919007809159079817EB
:1014B00019F00E94E801EFCF4230510508F462C1F3
:1014C0008091910764E0862E912CA12CB12C81345F
:1014D00009F168F4813030F08730B8F08F508230F5
:1014E00008F41AC188248A94982C540113C0E9E0A6
:1014F0008E2E912CA12CB12C833461F008F430C1D4
:10150000843409F417C1853469F7F8E08F2E912CE3
:10151000A12CB12C61E086169606A104B10448F610
:1015200081149104A104B10429F0840148155905DE
:1015300008F02CC12FB7F894809188079091890703
:10154000A0918A07B0918B072FBF409174055091ED
:1015500075056091760570917705841B950BA60B38
:10156000B70B0997A105B10520F0109291081092D0
:101570009008409163075091640730E020E0F90142
:10158000EE0FFF1FE751F94F0190F081E02D3097EA
:1015900099F0D90183E0B695A7958A95E1F7A40F54
:1015A000B51F8C9190E0622F677002C0959587956A
:1015B0006A95E2F7817080832F5F3F4F28333105B2
:1015C000F1F680915A0790915B07BC01605C7F4FF8
:1015D000DC012D96EEADFFAD2D97219131912D9629
:1015E000FFAFEEAF2D972115310531F04D915C9194
:1015F0001197F9015183408312966A177B0749F7C7
:10160000FB0188599F4F2F96AEADBFAD2F974D91DF
:101610005D912F96BFAFAEAF2F974115510529F0C1
:1016200020813181DA012D933C9332968E179F07EA
:1016300051F7E0915D07F0915E07CF01805B9F4F0E
:101640006196AEADBFAD61972D913D916196BFAFF3
:10165000AEAF61972115310551F040815181628112
:101660007381D9014D935D936D937C931397349659
:101670008E179F0729F7E0916007F0916107CF016E
:1016800080569F4F2B96AEADBFAD2B97ED90FD9042
:101690002B96BFAFAEAF2B97E114F104F1F00081B0
:1016A0001181728163815481458136812781D701FF
:1016B0000C9311961C93119712967C931297139684
:1016C0006C93139714965C93149715964C931597F7
:1016D00016963C93169717962C9338968E179F075D
:1016E00089F6CA5ADF4F0FB6F894DEBF0FBECDBFE2
:1016F000DF91CF911F910F91FF90EF90DF90CF90EE
:10170000BF90AF909F908F907F906F905F904F9021
:101710003F902F900C941A074730510598F1809014
:101720009607912CB12CA12CF9E08F0E911CA11CD5
:10173000B11CF0CE4430510528F120919207309130
:101740009307322723273227A3E0B0E00E94961C9C
:101750004B015C0126E0820E911CA11CB11CDACE6B
:101760004830510578F0809096079090970798241C
:1017700089249824B12CA12C3AE0830E911CA11C41
:10178000B11CC8CE812C912C5401C4CED0909107AD
:101790008FEB8D0D853000F1909279058092780560
:1017A0000E94A608B501A4014250510961097109BE
:1017B0004057584FDA012C91B1E08B1A9108A108DB
:1017C000B108F401E057F84F30812327322723274F
:1017D0002817390709F06DCE0250110910937905C9
:1017E00000937805609092077090930776246724A1
:1017F0007624809192070091940710919507102705
:1018000001271027E0909307F0909407FE24EF241F
:10181000FE24C0909507EFE0DE1609F4A9C5ED158A
:10182000D8F1F3E0DF1609F492C1FD1568F021E06C
:10183000D21609F426C432E0D31609F4ACC461E030
:1018400070E08D2D90E025C045E0D41609F471C5F7
:10185000D41608F429C556E0D512F1CF20915C07C3
:1018600080915F0790E0880F991FE22FF0E08E0FC4
:101870009F1F40916207B4E04B9FA0011124480FC5
:10188000591F6416750608F455C062E070E086E0E2
:1018900090E00E94D1085BC062E4D61609F408C744
:1018A0006D15E8F070E1D71609F474C281E4D8121E
:1018B000C6CFD092910781E0809392078EE7809304
:1018C000930780E00E947E0490939407809395078D
:1018D00086E090E0909379058093780538C094E491
:1018E000D91609F46CC6D91608F4F7C5A5E4DA12BE
:1018F000A6CFD09291078EE78093920781E2E3E42E
:10190000F5E09E012F5F3F4FD90101900D928A951E
:10191000E1F7A3E9B7E0A901CA01821B930BFA0121
:101920006191AF01FD01E059F740662309F408C752
:101930006D93F2CF6E167F06D8F4660C771CE0919B
:101940005A07F0915B07E60DF71D11830083809124
:1019500078059091790502968130914008F466C52A
:101960008091910764E070E090E00E94D1085EC52C
:1019700068167906F0F5A80170E060E080915D07D7
:1019800090915E0760FC1CC093012E1B3F0BF90178
:10199000EE0FFF1FEC7FF370E80FF91F808191813C
:1019A000A281B381AA27BB27BA0155274427842BDC
:1019B000952BA62BB72B80839183A283B383C7CFAC
:1019C000E095F095E60DF71DEE0FFF1FEC7FF3702D
:1019D000E80FF91F0081118122813381002711272F
:1019E000042B152B262B372B008311832283338363
:1019F000AECF9301237033274801B12CA12CC12C09
:101A0000D12C7601E0916007F09161072115310535
:101A100049F5681A790A660C771C38EF632237E0BB
:101A20007322E60DF71D5080618072801381B481AE
:101A3000A581940140E050E060E070E080E090E03B
:101A400000E30E94041D25292083632A6182742AF1
:101A50007282152B1383B62BB483A72BA5838683A1
:101A6000978375CF2130310541F54FEF641A740A21
:101A7000681A790A660C771C58EF652257E07522C0
:101A8000E60DF71D5080618072801381B681A781B9
:101A90009401A501B601C70100E20E94041D522A6B
:101AA0005082632A6182742A7282152B13836483A5
:101AB00075838B2B86839A2BD3CF2230310529F562
:101AC00062E0660E711C681A790A660C771C78EF62
:101AD000672277E07722E60DF71D508061807480E1
:101AE0001581B681A7819401A501B601C70100E166
:101AF0000E94041D522A5082632A618242835383CA
:101B0000762A7482172B1583D4CFA3E06A0E711C3A
:101B1000681A790A660C771CB8EF6B22B7E07B2253
:101B2000E60DF71D5281438134812581968187819D
:101B3000808291825A2952834B2943833C293483E2
:101B40002D2925839E2996838F29878300CFC8015D
:101B5000019763E070E08D379105C8F44301800E72
:101B6000911E20915C07E0915F07F0E0EE0FFF1FF0
:101B7000E20FF11D8091620734E0839FC0011124C0
:101B80008E0F9F1F8816990628F062E070E083E0B0
:101B900090E07FCE000F111F0D5F1F4F109379054E
:101BA0000093780530E9E32E37E0F32ED701119644
:101BB000CD01805997408017910710F41C92F7CF00
:101BC00083E080939107035000939207C0906007D1
:101BD000D0906107A0905D07B0905E07A0915A0772
:101BE000B0915B07BEAFADAFA22FB0E02796BFAFFD
:101BF000AEAF279783E090E01C012E1A3F0A2D011B
:101C0000409450948614970409F4A1CE2796AEAD63
:101C1000BFAD27976A167B0660F49301220F331F2E
:101C2000ADADBEAD2A0F3B1FD9018C9111963C91F1
:101C30001CC06E167F0680F560FC24C0C301279689
:101C4000AEADBFAD27978A1B9B0B880F991F8C7F6A
:101C500093708A0D9B1DDC014D915D916D917C917E
:101C6000AB0166277727842F352FD70113963C9336
:101C7000139714968C93B2E0EB0EF11C2FEF621ABF
:101C8000720AC0CF9201260D371D220F331F2C7F01
:101C900033702A0D3B1DC8CF830103701127011536
:101CA000110521F583010E1B1F0B000F111F087F6B
:101CB00017700C0D1D1DD8012C9111963C91119798
:101CC00012964C91129713965C91139714966C91FF
:101CD000149715967C91159716968C9116971796D2
:101CE0009C9100E30E941F1D822FBFCF0130110580
:101CF00011F50E1B1F0B060D171D000F111F087F7E
:101D000017700C0D1D1DD8012C9111963C91119747
:101D100012964C91129713965C91139714966C91AE
:101D2000149715967C91159716968C911697179681
:101D30009C9100E2D7CF0230110511F50E1B1F0B4D
:101D4000060D171D000F111F087F17700C0D1D1DAC
:101D5000D8012C9111963C91119712964C911297A3
:101D600013965C91139714966C91149715967C9129
:101D7000159716968C91169717969C9100E1B2CF05
:101D80009101260D371D220F331F287F37702C0D30
:101D90003D1D4ACFC80101978B37910540F4209132
:101DA0009607C801880F991F2817190629F063E0C4
:101DB00070E080E190E06DCDD301A00FB11F2796B8
:101DC000BFAFAEAF279720905C07A0915F07B0E050
:101DD000AA0FBB1F312CA20DB31D80916207E4E056
:101DE0008E9FC00111248A0F9B1F2796EEADFFAD79
:101DF0002797E817F90718F062E070E0DACF86E07D
:101E000090E09093790580937805D0929107709235
:101E10009207609293071092940700939507E090C1
:101E20006007F0906107E0915D07F0915E072996E9
:101E3000FFAFEEAF2997E0915A07F0915B076396E9
:101E4000FFAFEEAF639720E9422E27E0522E83E0EA
:101E500090E0FC01EA1BFB0B6596FFAFEEAF6597C8
:101E6000F101E095F0956796FFAFEEAF6797279683
:101E7000EEADFFAD27976E167F0609F4D7C2F201CB
:101E800047818085142F082F6214730490F4F301A6
:101E9000EE0FFF1F63962EAD3FAD6397E20FF31F6A
:101EA000118300835FEF651A750A62E0460E511CCC
:101EB000DECF6A167B06D8F5A80170E060E060FC12
:101EC0001FC0F301E219F309EE0FFF1FEC7FF3705F
:101ED00029968EAD9FAD2997E80FF91F00811181DA
:101EE0002281338122273327BA0155274427402BEB
:101EF000512B622B732B4083518362837383D2CF28
:101F00006796EEADFFAD6797E60DF71DEE0FFF1F6D
:101F1000EC7FF37029962EAD3FAD2997E20FF31FAA
:101F2000008111812281338100271127E0CFF30145
:101F3000E370FF27980150E040E060E070E0CB01E3
:101F40002DAF3EAF4FAF21965FAF219722966FAF77
:101F5000229723967FAF239724968FAF24972596B9
:101F60009FAF2597309739F5F301EA1BFB0BEE0F76
:101F7000FF1FE87FF770EE0DFF1D9080A180B280FB
:101F8000C380D480158140E050E060E070E080E0E4
:101F900090E000E30E94041D292920833A2931831F
:101FA0004B2942835C295383D62AD482172B15836D
:101FB0008683978377CFE130F10549F5EA1BFB0B68
:101FC000E60DF71DEE0FFF1FE87FF770EE0DFF1D0A
:101FD0009080A180B280C380D68017812DAD3EADA8
:101FE00040E050E060E070E080E090E000E20E94BD
:101FF000041D292920833A2931834B294283C52A8C
:10200000C382648375838D298683912BD2CFE2307E
:10201000F10531F5EA1BFB0BE60DF71DEE0FFF1F77
:10202000E87FF770EE0DFF1D9080A180B480C58021
:10203000D68017812DAD3EAD40E050E060E070E00D
:1020400080E090E000E10E94041D292920833A29C4
:10205000318342835383B62AB482C72AC582D3CF41
:102060006596EEADFFAD6597E60DF71DEE0FFF1F10
:10207000E87FF770EE0DFF1D3DAD30834EAD41831F
:1020800011CFC8010197803D974028F063E070E0D0
:1020900081E090E0FECB20916507C301800F911F86
:1020A00062E070E02817190698F3C80123E09695BE
:1020B00087952A95E1F7980127703327232B91F410
:1020C0000396909379058093780580917805909197
:1020D0007905E0E9F7E08130A1E09A0728F064E0B3
:1020E00070E0D6CF0496EDCF31969F01205937404E
:1020F0002817390710F41082F7CF91E090939107D9
:10210000835080939207A0906307B090640770E0BB
:1021100060E020E0C12CD12C7601C3941601270188
:10212000022E04C0220C331C441C551C0A94D2F706
:10213000FB0143E0F695E7954A95E1F7ED56F84F38
:102140003081A301A3E056954795AA95E1F74F7119
:1021500055274A0D5B1DDA014C9150E0B62DB77042
:1021600002C055954795BA95E2F7822D40FF0FC002
:10217000832B80832F5F283009F420E0EFEF6E1A65
:102180007E0A6F5F7F4F0617170741F6E0CB8095F9
:1021900038233083EFCFC801019763E070E0803DC2
:1021A000974030F520916B07C301800F911F62E0CB
:1021B00070E028171906E0F0C80133E0969587957E
:1021C0003A95E1F7980127703327232BA1F4039662
:1021D00090937905809378058091780590917905A1
:1021E000E0E9F7E0813021E0920738F064E070E048
:1021F00082E090E04ECB0496EBCF31969F012059C0
:1022000037402817390710F41082F7CF92E09093E7
:1022100091078350809392076091690770916A07D4
:1022200050E040E0B12CC12CD12C7601C3941601B2
:1022300027010B2C04C0220C331C441C551C0A948F
:10224000D2F7FA0183E0F695E7958A95E1F7ED5626
:10225000F84FA080930193E0369527959A95E1F782
:10226000260F372F311DD9012C9130E0B62DB770D4
:1022700002C035952795BA95E2F7822D20FF10C050
:102280008A298083B394E8E0BE1201C0B12CFFEF2D
:102290006F1A7F0A4F5F5F4F0417150741F657CB40
:1022A0008095A822A082EECFC801019763E070E07C
:1022B0008D37910550F420916807C301800F911F5D
:1022C0002817190628F462E070E084E090E0E1CA83
:1022D000C801880F991F039690937905809378051C
:1022E000E0E9F7E0DF0111969D01205937402817FA
:1022F000390710F41C92F7CF94E090939107835024
:1023000080939207660C771CA0916607B0916707CF
:10231000A60DB71D0150110932960F3F100709F4A1
:1023200016CB8C9111969C91119712969183828372
:10233000F1CF01153FEF130729F063E070E00115BD
:10234000110549F4809165078150990B8615970511
:1023500028F462E070E085E090E09BCA41E001155E
:102360001F4F09F040E060E0C3010E94E008EFCA9F
:102370009801E3E036952795EA95E1F7822FA801C9
:1023800047705527452B11F081E0820F98012150AD
:102390003109203B374020F490919607981729F097
:1023A00063E070E08FE090E074CA20916507C3019C
:1023B000800F911F2817190618F462E070E0F2CF21
:1023C00086E090E090937905809378058FE0809384
:1023D000910770929207609293071093940700936D
:1023E0009507F12CE12CD12CF70173E0F695E795D8
:1023F0007A95E1F7E057F84F478150E00D2C02C085
:10240000559547950A94E2F7417060E0C3018E0D3F
:102410009F1D0E94E008D39478E0D71201C0D12C10
:102420008FEFE81AF80A0E151F05F1F600917805EE
:1024300010917905780122E0E20EF11CF092790505
:10244000E09278050E94A608F801E057F84F9083C3
:10245000818380917E0587FD11C061E00E940602A4
:1024600080917A0590917B058230910538F0880F34
:10247000991F880F991F05970197F1F780917F05A4
:1024800090918005DC01ED91FC910280F381E02DBB
:10249000A70160E977E0199580917F05909180050B
:1024A000DC01ED91FC910680F781E02D199580917A
:1024B0007A0590917B058230910538F0880F991F3D
:1024C000880F991F05970197F1F780917E0587FD89
:1024D0004CC860E00E94060248C8811165C0C090E7
:1024E0009507D09096070E947E04009709F45CC07F
:1024F000E816F90608F058C0DC24CD24DC24C81600
:10250000D90608F051C0CE14DF0408F44DC05701BD
:102510006BE9862E67E0962E10E000E0B50180E0C2
:102520000E9493079C01200F311F255F3F4F2130F0
:10253000314098F4892B59F0A401B50180E00E9444
:10254000A507009721F0880E991E080F191FC501D5
:1025500001967501C816D90628F5C8010B96909307
:1025600079058093780583E4809391078EE78093C3
:102570009207F0929307E0929407809176079091EA
:10258000770720917807309179073093950720934A
:102590009607909397078093980710939907009355
:1025A0009A07D5C95C01BACF83E090E09093790592
:1025B0008093780583E48093910781E876C0B5E144
:1025C0006B16710408F068C0C301880F991F860D4F
:1025D000971DA4E9B7E08E010F5F1F4FF8019F011F
:1025E000201B310B2817390718F42D912193F7CFB1
:1025F000B12CA12C512CD12CC12C4BE0E42EF12C70
:102600006A147B0431F1F801408081808281982C2A
:10261000882EB401842D0E949307009791F08E0DAF
:102620009F1D81309140A8F4A7014057584FB40135
:10263000842D0E94A507009721F0E80EF91EC80E10
:10264000D91E0D5F1F4F5A2C95012F5F3F4F590127
:10265000D7CFF0927905E092780584E480939107D2
:102660008EE780939207109293075092940780917F
:10267000760790917707209178073091790730930A
:102680009507209396079093970780939807D09289
:102690009907C0929A075BC983E090E0909379050F
:1026A00080937805D092910782E8809392074FC972
:1026B0000091960710919707102701271027093FCF
:1026C000110548F083E090E09093790580937805B8
:1026D000D092910772CFB7010E946407282FCB01D7
:1026E000009751F1253140F530E049E0429FF0017B
:1026F000439FF00D1124E65BFB4FCC20C1F02085F9
:102700002223E1F02017110609F0C0F40190F081B6
:10271000E02D68E977E019958EE723E030E030930B
:1027200079052093780592E490939107BECF0280BB
:10273000F381E02D1995F0CF81E8EFCF82E8EDCF5E
:10274000E057F84F2DEA2083FC01E057F84F2EEDBB
:1027500024830596BFC80F931F93CF93DF938B01FC
:10276000FC01FE5F2081222351F19C012F5F3D4F30
:1027700022503E4FD9012D913C912F37310510F059
:102780002EE730E0622FE80128834081442311F0D6
:102790008F5F9D4FFC01D80180E0861790F49081F7
:1027A000329611969C931197AF0142505109EA015C
:1027B000998112969C9312978F5F1296EECF9C018F
:1027C000D7CF220F331F2F5F3F4F2D3F310579F0B9
:1027D0004DEF50E0421B530B70E060E0C801820FE8
:1027E000931FDF91CF911F910F910C947D1EDF916C
:1027F000CF911F910F9108950C94EB1D0C94EB1D3C
:102800000F931F93CF93DF93CDB7DEB7C150D14065
:102810000FB6F894DEBF0FBECDBF8C01FB01408127
:102820004F3708F04EE750E0C050DF4F59834883E0
:10283000C050D1406F5F7F4FCE0101960E94741E41
:10284000C050DF4FE881F981C050D14081E090E075
:102850008C0F9D1FE80FF91F108281E091E0FE01AF
:102860003196D80101900D920197E1F7CF5FDE4FCD
:102870000FB6F894DEBF0FBECDBFDF91CF911F9191
:102880000F9108950F931F93CF93DF93CDB7DEB7CA
:10289000C150D1400FB6F894DEBF0FBECDBF8C0142
:1028A000FB0140814F3708F04EE750E0C050DF4F4A
:1028B00059834883C050D1406F5F7F4FCE0101964E
:1028C0000E94741EC050DF4FE881F981C050D14092
:1028D00081E090E08C0F9D1FE80FF91F1082F80136
:1028E000EF5FFE4F81E08083D801AE5FBE4F81E095
:1028F00091E0FE01319601900D920197E1F7CF5FD3
:10290000DE4F0FB6F894DEBF0FBECDBFDF91CF9183
:102910001F910F910895FF920F931F93CF93DF9311
:102920008B01FC01EF5FFE4F2081222319F19C01F6
:102930002E5F3E4F21503F4FD901CD91DC91CF37D3
:10294000D10510F0CEE7D0E0FC2ED801CC93C11118
:1029500013C04EE750E04C1B5D0BCE01019670E0BA
:1029600060E0800F911FDF91CF911F910F91FF9039
:102970000C947D1E9C01DECF2081BC01222311F02E
:102980006E5F7E4FAE01C80101960E94741E8EE7F5
:10299000F812DFCFDF91CF911F910F91FF90089533
:1029A0001F920F920FB60F9211242F933F938F9384
:1029B0009F93AF93BF938091880790918907A091CF
:1029C0008A07B0918B073091870723E0230F2D37BB
:1029D00058F50196A11DB11D2093870780938807A4
:1029E00090938907A0938A07B0938B0780918C07F7
:1029F00090918D07A0918E07B0918F070196A11D30
:102A0000B11D80938C0790938D07A0938E07B09390
:102A10008F07BF91AF919F918F913F912F910F9011
:102A20000FBE0F901F90189526E8230F0296A11D48
:102A3000B11DD2CF1F920F920FB60F9211240BB679
:102A40000F922F933F934F935F936F937F938F9347
:102A50009F93AF93BF93EF93FF9382E998E00E9417
:102A60003103FF91EF91BF91AF919F918F917F9132
:102A70006F915F914F913F912F910F900BBE0F90EF
:102A80000FBE0F901F9018951F920F920FB60F92C6
:102A900011240BB60F922F938F939F93EF93FF9375
:102AA000E091A208F091A3088081E091A808F0913C
:102AB000A90882FD1DC090818091AB088F5F8F7344
:102AC0002091AC08821741F0E091AB08F0E0EE569F
:102AD000F74F958F8093AB08FF91EF919F918F9166
:102AE0002F910F900BBE0F900FBE0F901F90189557
:102AF0008081F2CFE2E9F8E01382128288EE93E05F
:102B0000A0E0B0E084839583A683B7838BE095E053
:102B10009183808385EC90E09587848784EC90E0B6
:102B20009787868780EC90E0918B808B81EC90E09A
:102B3000938B828B82EC90E0958B848B86EC90E07B
:102B4000978B868B118E128E138E148EEFE2F9E026
:102B500081E395E0918380838DE195E09383828387
:102B600014821582168217821086118612861386A9
:102B70001486158616861786108A118A128A88E0AE
:102B800097E0948B838B158A178A168A8CEF98E0CE
:102B9000918F808F128E148E138E158E168E178E37
:102BA00011A210A212A214A213A216A215A217A279
:102BB00011A610A613A612A614A616A615A610AA4C
:102BC00017A611AA13AA12AA14AA15AA16AA17AA16
:102BD00010AE11AE81E082AF13AE14AEA8E0B2E049
:102BE0002FE439E019963C932E93189724E539E0A9
:102BF00053963C932E93529729E539E05D963C938A
:102C00002E935C972EE539E097963C932E939697FA
:102C100023E639E0D1963C932E93D09726E639E00F
:102C2000DB963C932E93DA97AEE7B9E021E339E0E7
:102C300011963C932E9324E635E036AF25AFEEE6B1
:102C4000F9E010829DE2918391E392838383148261
:102C500015821682178241E050E060E070E04093F8
:102C60007609509377096093780970937909B09346
:102C70007B09A0937A0981E090E090937D0980938D
:102C80007C092AE635E030938109209380092FE6FC
:102C900035E030938309209382092CE639E03093A4
:102CA0008509209384099093870980938609089564
:102CB000CF93DF93CDB7DEB764970FB6F894DEBF3E
:102CC0000FBECDBF789484B5826084BD84B5816029
:102CD00084BD85B5826085BD85B5816085BD8091E7
:102CE0006E00816080936E0010928100809181005F
:102CF0008260809381008091810081608093810057
:102D0000809180008160809380008091B100846018
:102D10008093B1008091B00081608093B000809179
:102D200091008260809391008091910081608093F6
:102D30009100809190008160809390008091A1002B
:102D400082608093A1008091A10081608093A100A6
:102D50008091A00081608093A00080912101826019
:102D600080932101809121018160809321018091D4
:102D7000200181608093200180917A00846080939B
:102D80007A0080917A00826080937A0080917A0044
:102D9000816080937A0080917A00806880937A00C5
:102DA0001092C100E8E0F2E080859185009749F03B
:102DB0002081213009F4D3C008F4B2C0223009F4D4
:102DC000EBC03A9622E0E434F20771F7809186096D
:102DD000909187099A8B898BA0918409B09185097C
:102DE000BC8BAB8BBA83A9831A861986312C212C14
:102DF000712C812C912C1B821C82612C512C412C1A
:102E0000E989FA8929853A85E217F30709F4EAC0C6
:102E1000A981BA8150968D919C915197280E391EA7
:102E20001296DC9012971396EC9013971496FC90E0
:102E3000149715960C91159716961C911697179640
:102E4000BC91E981FA81C084B1842D2D3E2D4F2D96
:102E5000502F612F7B2F8C2D9B2DA0E00E94431DB6
:102E600009F054F4D12C6DE2E62E71E3F72E01E067
:102E700010E0B0E0C12CB12CDD82EF82FB860C8724
:102E80001D87BE87CF86B88A272D382D492D5B81B7
:102E90006C81762D852D942DA0E00E94431D59F163
:102EA000AD80BF80CB84DC84ED84FE840F851889DF
:102EB000272D382D492D5B816C81762D852D942D04
:102EC0000E94A51CD22EE32EF42E052F162FB72F0D
:102ED000F82FE92F7A2C8B2C9C2C2C852B833D856D
:102EE0003C836E845F8448882D2D3E2DA0E00E9497
:102EF000431D09F06EC089859A8501969A87898756
:102F0000A981BA815296BA83A9837D808F809B84E0
:102F1000BC85BB83ED85EC836E845F84488870CF6D
:102F20002181222351F0223009F04BCFA281B381BD
:102F3000AA0FBB1FA750BA4F0FC022813381A481B3
:102F400073E0220F331F7A95E1F7A20FB32FB11D63
:102F5000AA0FBB1FA75CB94F8D939C9332CF2181E1
:102F6000222351F0223009F02CCFA281B381AA0F85
:102F7000BB1FA755B94FF0CF22813381A48143E015
:102F8000220F331F4A95E1F7A20FB32FB11DAA0FED
:102F9000BB1FA751B94FE0CF2181233061F024300E
:102FA00089F0223009F00DCFA281B381AA0FBB1F97
:102FB000AF52BA4FD1CFA281B381AA0FBB1FA75581
:102FC000BA4FCACFA281B381AA0FBB1FAF57BA4F66
:102FD000C3CFDD82EF82FB860C871D87BE87FF870C
:102FE000E88B5ECF272D382D492D5B816C81762DA6
:102FF000852D942DA0E00E94431D59F4712C4DE2C3
:10300000842E51E3952EF1E0FB831C82612C512C20
:10301000412C7092000280920102909202022B8158
:10302000209303023C813093040260920502509287
:10303000060240920702211480E4380608F0A3C07B
:10304000C101880F991F009709F4A0C00E944F1D6D
:103050009E838D839093750780937407211490E26B
:10306000390608F096C0C101880F991F880F991F73
:10307000009709F491C00E944F1D98878F83909309
:103080007B0780937A0730927D0720927C071A8213
:103090001982312C212CA985BA85E981FA81AE17D4
:1030A000BF0709F489C0AB89BC891296DC901297DE
:1030B0001396EC9013971496FC90149715960C9118
:1030C000159716961C9116971796BC91EB89FC895B
:1030D000C084B1842D2D3E2D4F2D502F612F7B2F7D
:1030E0008C2D9B2DA0E00E94431D09F044F4272D58
:1030F000382D492D5B816C81762D852D942DA72C43
:10310000B82CC92CDB80EC80F62C052D142D0E94E8
:10311000A71CB22EA32E742F652FAB89BC895096A5
:103120004D915C918A01000F111F7101EE0CFF1C83
:103130006101CC0CDD1CCC0CDD1C90E080E0801724
:10314000910769F1AB89BC891E96ED91FC91E80F5E
:10315000F91F20813181FC01EE0DFF1DAD81BE8183
:10316000EA0FFB1F31832083FC01EE0FFF1FEC0DE4
:10317000FD1D2F813885E20FF31FB082A18272837B
:1031800063830296DCCF8FEF9FEF60CF81E090E00A
:103190005DCF8FEF9FEF6FCF81E090E06CCF240E7B
:1031A000351E89819A8101969A838983AB89BC896E
:1031B0005296BC8BAB8B6FCFE091A208F091A30825
:1031C00082E08083E0919E08F0919F081082E09158
:1031D000A008F091A10880E180831092AA08E091F4
:1031E000A608F091A70886E08083E091A408F091FA
:1031F000A508808180618083E091A408F091A508F2
:10320000808188608083E091A408F091A508808186
:1032100080688083E091A408F091A50880818F7D6B
:10322000808382E998E09093800580937F058FEFFB
:1032300080937E058EEE92E090937D0580937C05D1
:1032400081E49AE090937B0580937A0581E08093F6
:10325000590784E380935C0784E180935F07809340
:10326000620788E38093650790E2909368078093F4
:103270006B0787E090E00E944F1D90936407809356
:103280006307009709F451C017E0FC01212F119248
:103290002A95E9F788E690E00E944F1D90935B071E
:1032A00080935A07009709F440C028E6DC011D927C
:1032B0002A95E9F780E590E00E944F1D90935E0704
:1032C00080935D07009789F120E5FC0111922A9512
:1032D000E9F780EA90E00E944F1D90936107809388
:1032E0006007009711F120EADC011D922A95E9F7A9
:1032F00087E090E00E944F1D90936A0780936907D2
:10330000009799F0FC0111921A95E9F780E490E09A
:103310000E944F1D9093670780936607009729F0DE
:1033200020E4DC011D922A95E9F710E000E0C801D5
:10333000880F991FFC01E751F94F7F01808191812E
:10334000892B49F481E090E00E944F1DD7018D93B5
:103350009C93FC0110820F5F1F4F0833110539F752
:1033600000915A0710915B07E9EAF6E090E080E0EF
:1033700021913191232B39F4DF0112979801280F05
:10338000391F2D933C9302968034910589F7D12CF7
:10339000C12CC601880F991F9C01275C394F790108
:1033A000D9018D919C91892B49F481E090E00E9494
:1033B0004F1DF70191838083DC011C92BFEFCB1A74
:1033C000DB0AE8E3CE16D10421F72091660730919D
:1033D0006707E9EFF5E090E080E041915191452BDE
:1033E00039F4DF011297A901480F591F4D935C93DF
:1033F00002968034910589F7E1EDF5E090E080E0F8
:10340000005C1F4F21913191232B39F4DF0112977A
:103410009801280F391F2D933C930296883291050D
:1034200089F740915D0750915E07E9EAF5E090E089
:1034300080E021913191232B59F4DF0112979C01F7
:10344000220F331F220F331F240F351F2D933C9360
:1034500001968431910569F74091600750916107A9
:10346000E1E8F5E090E080E021913191232B61F4D7
:10347000DF0112979C0163E0220F331F6A95E1F789
:10348000240F351F2D933C9301968431910561F7EC
:1034900048EEA42E53E0B52EC12CD12CE12CF12CFA
:1034A00000E010E0272D382D492D5B816C81762DB1
:1034B000852D942D0E94A71C20937F0730938007B1
:1034C00040938107509382070E9492026093830782
:1034D000709384078093850790938607992493942B
:1034E0000E94920200918307109184072091850722
:1034F00030918607601B710B820B930B00917F0745
:103500001091800720918107309182076017710721
:103510008207930708F4C7C00E941A071A8219820B
:1035200080917C0790917D0729813A81281739077E
:10353000D8F5E0917A07F0917B07C901880F991FB0
:10354000880F991FE80FF91F208131814281538133
:10355000211531054105510571F060917607709193
:10356000770780917807909179070E946C1C672BF0
:10357000682B692B99F4E0917407F09175078981A4
:103580009A81880F991FE80FF91F80819181DC01D2
:10359000ED91FC910480F581E02D1995E981FA8186
:1035A0003196FA83E983BCCF8091760790917707B3
:1035B000A0917807B09179070196A11DB11D809364
:1035C000760790937707A0937807B09379072091B7
:1035D0006C0730916D0740916E0750916F076091B5
:1035E0007007709171078091720790917307A09096
:1035F0000002B0900102C0900202D0900302E0905D
:103600000402F090050200910602109107020E9448
:103610003A1D20936C0730936D0740936E075093CB
:103620006F07609370077093710780937207909390
:1036300073070E940C0980917E07811118C0909237
:103640007E070E94920200917F07109180072091CF
:10365000810730918207601B710B820B930B609383
:1036600083077093840780938507909386078091E2
:10367000830790918407A0918507B09186074091B8
:103680007F07509180076091810770918207840FB6
:10369000951FA61FB71F8093830790938407A0935D
:1036A0008507B09386070E949202009183071091CC
:1036B00084072091850730918607601B710B820B70
:1036C000930B603177428105910510F00E940C093F
:1036D00088950E94C00304CF0E94801B0C94321C6A
:1036E0000E942B1C58F00E94241C40F029F45F3FDC
:1036F00029F00C941B1C51110C94661C0C94211C79
:103700000E94431C68F39923B1F3552391F3951B51
:10371000550BBB27AA2762177307840738F09F5FF2
:103720005F4F220F331F441FAA1FA9F335D00E2E5F
:103730003AF0E0E832D091505040E695001CCAF7CC
:103740002BD0FE2F29D0660F771F881FBB1F26178F
:1037500037074807AB07B0E809F0BB0B802DBF0166
:10376000FF2793585F4F3AF09E3F510578F00C9435
:103770001B1C0C94661C5F3FE4F3983ED4F38695C3
:1037800077956795B795F7959F5FC9F7880F911D56
:103790009695879597F90895E1E0660F771F881F42
:1037A000BB1F621773078407BA0720F0621B730BF5
:1037B000840BBA0BEE1F88F7E0950895E89409C0D2
:1037C00097FB3EF490958095709561957F4F8F4F54
:1037D0009F4F9923A9F0F92F96E9BB279395F6956A
:1037E000879577956795B795F111F8CFFAF4BB0FE8
:1037F00011F460FF1BC06F5F7F4F8F4F9F4F16C04C
:10380000882311F096E911C0772321F09EE8872FD5
:10381000762F05C0662371F096E8862F70E060E091
:103820002AF09A95660F771F881FDAF7880F96950A
:10383000879597F9089597F99F6780E870E060E0B1
:1038400008959FEF80EC089500240A941616170639
:1038500018060906089500240A9412161306140681
:1038600005060895092E0394000C11F4882352F0E4
:10387000BB0F40F4BF2B11F460FF04C06F5F7F4F9C
:103880008F4F9F4F089557FD9058440F551F59F083
:103890005F3F71F04795880F97FB991F61F09F3F3D
:1038A00079F087950895121613061406551FF2CF66
:1038B0004695F1DF08C0161617061806991FF1CFB6
:1038C00086957105610508940895E894BB276627DD
:1038D0007727CB0197F90895A1E21A2EAA1BBB1BEB
:1038E000FD010DC0AA1FBB1FEE1FFF1FA217B307CC
:1038F000E407F50720F0A21BB30BE40BF50B661FE2
:10390000771F881F991F1A9469F7609570958095A5
:1039100090959B01AC01BD01CF010895EE0FFF1FF3
:10392000881F8BBF0790F691E02D1994A29FB001DC
:10393000B39FC001A39F700D811D1124911DB29FE3
:10394000700D811D1124911D0895689401C0E894A3
:103950008F929F92CF93DF930E94B31CDF91CF9100
:103960009F908F90089588249924F401E401B0E495
:103970009F93AA279A158B049C04ED05FE05CF059D
:10398000D007A10798F4AD2FDC2FCF2FFE2FE92D04
:10399000982C892E982F872F762F652F542F432F01
:1039A000322F2227B85031F7BF9127C01B2EBF916D
:1039B000BB27220F331F441F551F661F771F881F09
:1039C000991F881C991CEE1FFF1FCC1FDD1FAA1F0B
:1039D000BB1F8A149B04EC05FD05CE05DF05A0077F
:1039E000B10748F08A189B08EC09FD09CE09DF09E8
:1039F000A00BB10B21601A94E1F62EF49401AF01F3
:103A0000BE01CD01000C0895002E083090F0982FD3
:103A1000872F762F652F542F432F322F22270850C0
:103A2000F4CF220F331F441F551F661F771F881FB7
:103A3000991F0A95B2F7002D089597FD1094002E56
:103A4000083098F00850232F342F452F562F672F1A
:103A5000782F892F912DF4CF159497958795779589
:103A6000679557954795379527950A95AAF7112495
:103A7000002D08952A0D3B1D4C1D5D1D6E1D7F1DE3
:103A8000801F911F08950024A7FD00942A17300578
:103A900040055005600570058005900508950F9359
:103AA0001F93CF93DF938230910510F482E090E072
:103AB000E0918A09F0918B0930E020E0B0E0A0E0CD
:103AC000309799F42115310509F44AC0281B390BA8
:103AD00024303105D8F58A819B816115710589F102
:103AE000FB0193838283FE0111C0408151810281D9
:103AF000138148175907E0F04817590799F41097B0
:103B000061F012960C93129713961C933296CF0184
:103B1000DF91CF911F910F91089500938A0910931F
:103B20008B09F4CF2115310551F04217530738F0B6
:103B3000A901DB019A01BD01DF01F801C1CFEF014D
:103B4000F9CF90938B0980938A09CDCFFE01E20FC4
:103B5000F31F819391932250310939832883D7CF62
:103B60002091880930918909232B41F42091460244
:103B700030914702309389092093880920914402AB
:103B8000309145022115310541F42DB73EB74091E2
:103B9000480250914902241B350BE0918809F091AD
:103BA0008909E217F307A0F42E1B3F0B28173907EA
:103BB00078F0AC014E5F5F4F2417350748F04E0F89
:103BC0005F1F5093890940938809819391939FCFF8
:103BD000F0E0E0E09CCFCF93DF930097E9F0FC01A9
:103BE000329713821282A0918A09B0918B09ED015C
:103BF00030E020E01097A1F420813181820F931FE3
:103C000020918809309189092817390709F061C086
:103C1000F0938909E0938809DF91CF910895EA0133
:103C2000CE17DF07E8F54A815B819E0141155105FA
:103C3000B1F7E901FB83EA8349915991C40FD51F7C
:103C4000EC17FD0761F4808191810296840F951F26
:103C5000E90199838883828193819B838A83F0E041
:103C6000E0E012968D919C9113970097B9F52D91F4
:103C70003C911197CD010296820F931F20918809E4
:103C8000309189092817390739F6309751F5109284
:103C90008B0910928A09B0938909A0938809BCCF37
:103CA000D383C28340815181840F951FC817D907E0
:103CB00061F44E5F5F4F88819981480F591F51838E
:103CC00040838A819B81938382832115310509F08A
:103CD000B0CFF0938B09E0938A099ECFFD01DC0100
:103CE000C0CF13821282D7CFFB01DC0102C001904A
:103CF0000D9241505040D8F70895DC0101C06D93FA
:0C3D000041505040E0F70895F894FFCFC8
:103D0C00002D3101000000000002640000000000E2
:103D1C0000000002650000000000000000026600C8
:103D2C00000000000000000267000000000000001E
:103D3C0001006400000000000000000064000000AE
:103D4C000000000000008C09800000C0C101C3030A
:103D5C0002C2C60607C705C5C404CC0C0DCD0FCFD7
:103D6C00CE0E0ACACB0BC90908C8D81819D91BDB47
:103D7C00DA1A1EDEDF1FDD1D1CDC14D4D515D71797
:103D8C0016D6D21213D311D1D010F03031F133F347
:103D9C00F23236F6F737F53534F43CFCFD3DFF3F97
:103DAC003EFEFA3A3BFB39F9F83828E8E929EB2BC7
:103DBC002AEAEE2E2FEF2DEDEC2CE42425E527E757
:103DCC00E62622E2E323E12120E0A06061A163A3C7
:103DDC00A26266A6A767A56564A46CACAD6DAF6F57
:103DEC006EAEAA6A6BAB69A9A86878B8B979BB7BC7
:103DFC007ABABE7E7FBF7DBDBC7CB47475B577B717
:103E0C00B67672B2B373B17170B050909151935346
:103E1C00529296565797559594549C5C5D9D5F9F16
:103E2C009E5E5A9A9B5B99595898884849894B8B46
:103E3C008A4A4E8E8F4F8D4D4C8C448485458747D6
:103E4C004686824243834181804000C1814001C04B
:103E5C00804101C0804100C1814001C0804100C14E
:103E6C00814000C1814001C0804101C0804100C13E
:103E7C00814000C1814001C0804100C1814001C02E
:103E8C00804101C0804100C1814001C0804100C11E
:103E9C00814000C1814001C0804100C1814001C00E
:103EAC00804101C0804100C1814000C1814001C0FE
:103EBC00804101C0804100C1814001C0804100C1EE
:103ECC00814000C1814001C0804101C0804100C1DE
:103EDC00814000C1814001C0804100C1814001C0CE
:103EEC00804101C0804100C1814000C1814001C0BE
:103EFC00804101C0804100C1814001C0804100C1AE
:103F0C00814000C1814001C0804100C1814001C09D
:103F1C00804101C0804100C1814001C0804100C18D
:103F2C00814000C1814001C0804101C0804100C17D
:103F3C00814000C1814001C0804100C1814001C06D
:103F4C00804101C0804100C181409A08E4061007FD
:103F5C008D080108070507FB06F20601EA06E706CD
:103F6C00DA06D10601C6069D06B906AE0602A30600
:103F7C00A00690068506027006BC045D064E06047B
:103F8C00390636062306140604EA056B05BE059BA6
:103F9C00050871056E053F051C050807050405F1AC
:103FAC0004D70404C204BF04A9048F0404EA06E77E
:103FBC0006DA06D10601A306A0069006850602398C
:103FCC00063606230614060471056E053F051C050E
:103FDC0008EA056B05BE059B0508EA056B05BE05E1
:103FEC009B0508EA056B05BE059B0508EA056B05F4
:103FFC00BE059B0508421488088B1400147FCC075F
:10400C00C807AB132B08FD000000005303BD02EAE8
:10401C0002A0031B03F9020D0300000000F103FCD6
:10402C0013F203770474047304730468040000002F
:10403C00007A04FE137B04BA02B702434F4E464982
:10404C004730003765623664323162303231656533
:10405C0032326139383963616238326265323534F3
:10406C00373231005441534B3000524553300050DD
:04407C004C430000B1
:00000001FF
